{"abi":[{"type":"constructor","inputs":[{"name":"_operator","type":"address","internalType":"address"}],"stateMutability":"nonpayable"},{"type":"function","name":"AAVE_V3","inputs":[],"outputs":[{"name":"","type":"address","internalType":"address"}],"stateMutability":"view"},{"type":"function","name":"A_USDC","inputs":[],"outputs":[{"name":"","type":"address","internalType":"address"}],"stateMutability":"view"},{"type":"function","name":"OPERATOR","inputs":[],"outputs":[{"name":"","type":"address","internalType":"address"}],"stateMutability":"view"},{"type":"function","name":"UNISWAP_ROUTER","inputs":[],"outputs":[{"name":"","type":"address","internalType":"address"}],"stateMutability":"view"},{"type":"function","name":"USDC","inputs":[],"outputs":[{"name":"","type":"address","internalType":"address"}],"stateMutability":"view"},{"type":"function","name":"WETH","inputs":[],"outputs":[{"name":"","type":"address","internalType":"address"}],"stateMutability":"view"},{"type":"function","name":"forward","inputs":[{"name":"user","type":"address","internalType":"address"},{"name":"protocol","type":"string","internalType":"string"},{"name":"amount","type":"uint256","internalType":"uint256"}],"outputs":[],"stateMutability":"nonpayable"},{"type":"function","name":"forwardSwap","inputs":[{"name":"user","type":"address","internalType":"address"},{"name":"tokenOut","type":"address","internalType":"address"},{"name":"fee","type":"uint24","internalType":"uint24"},{"name":"amount","type":"uint256","internalType":"uint256"}],"outputs":[],"stateMutability":"nonpayable"},{"type":"function","name":"recover","inputs":[{"name":"token","type":"address","internalType":"address"},{"name":"to","type":"address","internalType":"address"},{"name":"amount","type":"uint256","internalType":"uint256"}],"outputs":[],"stateMutability":"nonpayable"},{"type":"function","name":"usdcBalance","inputs":[],"outputs":[{"name":"","type":"uint256","internalType":"uint256"}],"stateMutability":"view"},{"type":"function","name":"userAaveBalance","inputs":[{"name":"user","type":"address","internalType":"address"}],"outputs":[{"name":"","type":"uint256","internalType":"uint256"}],"stateMutability":"view"},{"type":"function","name":"withdraw","inputs":[{"name":"user","type":"address","internalType":"address"},{"name":"protocol","type":"string","internalType":"string"},{"name":"amount","type":"uint256","internalType":"uint256"}],"outputs":[],"stateMutability":"nonpayable"},{"type":"event","name":"Deposited","inputs":[{"name":"user","type":"address","indexed":true,"internalType":"address"},{"name":"protocol","type":"string","indexed":false,"internalType":"string"},{"name":"amount","type":"uint256","indexed":false,"internalType":"uint256"}],"anonymous":false},{"type":"event","name":"Returned","inputs":[{"name":"user","type":"address","indexed":true,"internalType":"address"},{"name":"amount","type":"uint256","indexed":false,"internalType":"uint256"},{"name":"reason","type":"string","indexed":false,"internalType":"string"}],"anonymous":false},{"type":"event","name":"Withdrawn","inputs":[{"name":"user","type":"address","indexed":true,"internalType":"address"},{"name":"protocol","type":"string","indexed":false,"internalType":"string"},{"name":"amount","type":"uint256","indexed":false,"internalType":"uint256"}],"anonymous":false}],"bytecode":{"object":"0x60a060405234801561000f575f80fd5b5060405161135138038061135183398101604081905261002e91610089565b6001600160a01b0381166100785760405162461bcd60e51b815260206004820152600d60248201526c2d32b9379037b832b930ba37b960991b604482015260640160405180910390fd5b6001600160a01b03166080526100b6565b5f60208284031215610099575f80fd5b81516001600160a01b03811681146100af575f80fd5b9392505050565b6080516112676100ea5f395f818161018401528181610202015281816103100152818161050d015261071101526112675ff3fe608060405234801561000f575f80fd5b50600436106100b1575f3560e01c806373688e561161006e57806373688e561461015c57806389a3027114610164578063983d27371461017f578063ad5c4648146101a6578063c9d05ea1146101c1578063d8264920146101dc575f80fd5b80631ec82cb8146100b55780631f6eafc5146100ca57806332139496146100dd5780633f7eca4a146101155780635df6c63e146101285780636485b5551461013b575b5f80fd5b6100c86100c336600461102d565b6101f7565b005b6100c86100d8366004611066565b610305565b6100f8736ae43d3271ff6888e7fc43fd7321a503ff73895181565b6040516001600160a01b0390911681526020015b60405180910390f35b6100c86101233660046110e8565b610502565b6100c8610136366004611066565b610706565b61014e610149366004611139565b610a3c565b60405190815260200161010c565b61014e610abe565b6100f87394a9d9ac8a22534e3faca9f4e7f2e2cf85d5e4c881565b6100f87f000000000000000000000000000000000000000000000000000000000000000081565b6100f873fff9976782d46cc05630d1f6ebab18b2324d6b1481565b6100f87316da4541ad1807f4443d92d26044c1147406eb8081565b6100f8733bfa4769fb09eefc5a80d6e87c3b9c650f7ae48e81565b336001600160a01b037f000000000000000000000000000000000000000000000000000000000000000016146102485760405162461bcd60e51b815260040161023f90611159565b60405180910390fd5b6001600160a01b03821661028f5760405162461bcd60e51b815260206004820152600e60248201526d16995c9bc81c9958da5c1a595b9d60921b604482015260640161023f565b60405163a9059cbb60e01b81526001600160a01b0383811660048301526024820183905284169063a9059cbb906044016020604051808303815f875af11580156102db573d5f803e3d5ffd5b505050506040513d601f19601f820116820180604052508101906102ff919061117f565b50505050565b336001600160a01b037f0000000000000000000000000000000000000000000000000000000000000000161461034d5760405162461bcd60e51b815260040161023f90611159565b6001600160a01b03841661038f5760405162461bcd60e51b81526020600482015260096024820152682d32b937903ab9b2b960b91b604482015260640161023f565b5f81116103cc5760405162461bcd60e51b815260206004820152600b60248201526a16995c9bc8185b5bdd5b9d60aa1b604482015260640161023f565b5f83836040516103dd92919061119e565b604051809103902090507fe0a39fef8aa5887c76606e7a14a5db8dc6676191e4866b2a609a3aa003b18329810361041d576104188583610b36565b6104b6565b7fa2a03459171c76bff45817330c10ef9f8af07011a33005b73b50189bbc7e7132810361047b5761041873fff9976782d46cc05630d1f6ebab18b2324d6b147394a9d9ac8a22534e3faca9f4e7f2e2cf85d5e4c8610bb88886610cee565b60405162461bcd60e51b815260206004820152601060248201526f155b9adb9bdddb881c1c9bdd1bd8dbdb60821b604482015260640161023f565b846001600160a01b03167f18af30a54a1951aeee806c16cdcb8d087ed1a095f0d9a87261b92cef2c6cc92d8585856040516104f3939291906111d5565b60405180910390a25050505050565b336001600160a01b037f0000000000000000000000000000000000000000000000000000000000000000161461054a5760405162461bcd60e51b815260040161023f90611159565b6001600160a01b0384161580159061056a57506001600160a01b03831615155b801561057557505f81115b6105ac5760405162461bcd60e51b8152602060048201526008602482015267626164206172677360c01b604482015260640161023f565b6040516370a0823160e01b815230600482015281907394a9d9ac8a22534e3faca9f4e7f2e2cf85d5e4c8906370a0823190602401602060405180830381865afa1580156105fb573d5f803e3d5ffd5b505050506040513d601f19601f8201168201806040525081019061061f91906111f8565b10156106615760405162461bcd60e51b8152602060048201526011602482015270496e73756666696369656e74205553444360781b604482015260640161023f565b6106967394a9d9ac8a22534e3faca9f4e7f2e2cf85d5e4c88462ffffff85161561068b578461068f565b610bb85b8785610d79565b836001600160a01b03167ffd4bdef056842e4615d2a093647094c0b9bf67c63662d614d63fefd617e0add2826040516106f891906040808252600c908201526b756e69737761702d636f707960a01b6060820152602081019190915260800190565b60405180910390a250505050565b336001600160a01b037f0000000000000000000000000000000000000000000000000000000000000000161461074e5760405162461bcd60e51b815260040161023f90611159565b6001600160a01b0384166107905760405162461bcd60e51b81526020600482015260096024820152682d32b937903ab9b2b960b91b604482015260640161023f565b5f81116107cd5760405162461bcd60e51b815260206004820152600b60248201526a16995c9bc8185b5bdd5b9d60aa1b604482015260640161023f565b6040516370a0823160e01b815230600482015281907394a9d9ac8a22534e3faca9f4e7f2e2cf85d5e4c8906370a0823190602401602060405180830381865afa15801561081c573d5f803e3d5ffd5b505050506040513d601f19601f8201168201806040525081019061084091906111f8565b10156108825760405162461bcd60e51b8152602060048201526011602482015270496e73756666696369656e74205553444360781b604482015260640161023f565b5f838360405161089392919061119e565b604051809103902090507fe0a39fef8aa5887c76606e7a14a5db8dc6676191e4866b2a609a3aa003b1832981036108d3576108ce8583610ef9565b6109ff565b7fa2a03459171c76bff45817330c10ef9f8af07011a33005b73b50189bbc7e71328103610931576108ce7394a9d9ac8a22534e3faca9f4e7f2e2cf85d5e4c873fff9976782d46cc05630d1f6ebab18b2324d6b14610bb88886610d79565b60405163a9059cbb60e01b81526001600160a01b0386166004820152602481018390527394a9d9ac8a22534e3faca9f4e7f2e2cf85d5e4c89063a9059cbb906044016020604051808303815f875af115801561098f573d5f803e3d5ffd5b505050506040513d601f19601f820116820180604052508101906109b3919061117f565b50846001600160a01b03167fa1e16e95eb5b500b72484b8c9c1cfc21878478ad8b47006bab4e5d282a7f933c8386866040516109f19392919061120f565b60405180910390a2506102ff565b846001600160a01b03167ffd4bdef056842e4615d2a093647094c0b9bf67c63662d614d63fefd617e0add28585856040516104f3939291906111d5565b6040516370a0823160e01b81526001600160a01b03821660048201525f907316da4541ad1807f4443d92d26044c1147406eb80906370a0823190602401602060405180830381865afa158015610a94573d5f803e3d5ffd5b505050506040513d601f19601f82011682018060405250810190610ab891906111f8565b92915050565b6040516370a0823160e01b81523060048201525f907394a9d9ac8a22534e3faca9f4e7f2e2cf85d5e4c8906370a0823190602401602060405180830381865afa158015610b0d573d5f803e3d5ffd5b505050506040513d601f19601f82011682018060405250810190610b3191906111f8565b905090565b6040516323b872dd60e01b81526001600160a01b0383166004820152306024820152604481018290527316da4541ad1807f4443d92d26044c1147406eb80906323b872dd906064016020604051808303815f875af1158015610b9a573d5f803e3d5ffd5b505050506040513d601f19601f82011682018060405250810190610bbe919061117f565b5060405163095ea7b360e01b8152736ae43d3271ff6888e7fc43fd7321a503ff7389516004820152602481018290527316da4541ad1807f4443d92d26044c1147406eb809063095ea7b3906044016020604051808303815f875af1158015610c28573d5f803e3d5ffd5b505050506040513d601f19601f82011682018060405250810190610c4c919061117f565b50604051631a4ca37b60e21b81527394a9d9ac8a22534e3faca9f4e7f2e2cf85d5e4c86004820152602481018290526001600160a01b0383166044820152736ae43d3271ff6888e7fc43fd7321a503ff738951906369328dec906064016020604051808303815f875af1158015610cc5573d5f803e3d5ffd5b505050506040513d601f19601f82011682018060405250810190610ce991906111f8565b505050565b6040516323b872dd60e01b81526001600160a01b038381166004830152306024830152604482018390528616906323b872dd906064016020604051808303815f875af1158015610d40573d5f803e3d5ffd5b505050506040513d601f19601f82011682018060405250810190610d64919061117f565b50610d728585858585610d79565b5050505050565b60405163095ea7b360e01b8152733bfa4769fb09eefc5a80d6e87c3b9c650f7ae48e6004820152602481018290526001600160a01b0386169063095ea7b3906044016020604051808303815f875af1158015610dd7573d5f803e3d5ffd5b505050506040513d601f19601f82011682018060405250810190610dfb919061117f565b506040805160e0810182526001600160a01b0387811682528681166020830190815262ffffff87811684860190815287841660608601908152608086018881525f60a0880181815260c0890191825298516304e45aaf60e01b815297518716600489015294518616602488015291519092166044860152905183166064850152516084840152925160a4830152915190911660c4820152733bfa4769fb09eefc5a80d6e87c3b9c650f7ae48e906304e45aaf9060e4016020604051808303815f875af1158015610ecd573d5f803e3d5ffd5b505050506040513d601f19601f82011682018060405250810190610ef191906111f8565b505050505050565b60405163095ea7b360e01b8152736ae43d3271ff6888e7fc43fd7321a503ff7389516004820152602481018290527394a9d9ac8a22534e3faca9f4e7f2e2cf85d5e4c89063095ea7b3906044016020604051808303815f875af1158015610f62573d5f803e3d5ffd5b505050506040513d601f19601f82011682018060405250810190610f86919061117f565b5060405163617ba03760e01b81527394a9d9ac8a22534e3faca9f4e7f2e2cf85d5e4c86004820152602481018290526001600160a01b03831660448201525f6064820152736ae43d3271ff6888e7fc43fd7321a503ff7389519063617ba037906084015f604051808303815f87803b158015611000575f80fd5b505af1158015610ef1573d5f803e3d5ffd5b80356001600160a01b0381168114611028575f80fd5b919050565b5f805f6060848603121561103f575f80fd5b61104884611012565b925061105660208501611012565b9150604084013590509250925092565b5f805f8060608587031215611079575f80fd5b61108285611012565b9350602085013567ffffffffffffffff8082111561109e575f80fd5b818701915087601f8301126110b1575f80fd5b8135818111156110bf575f80fd5b8860208285010111156110d0575f80fd5b95986020929092019750949560400135945092505050565b5f805f80608085870312156110fb575f80fd5b61110485611012565b935061111260208601611012565b9250604085013562ffffff81168114611129575f80fd5b9396929550929360600135925050565b5f60208284031215611149575f80fd5b61115282611012565b9392505050565b6020808252600c908201526b2737ba1037b832b930ba37b960a11b604082015260600190565b5f6020828403121561118f575f80fd5b81518015158114611152575f80fd5b818382375f9101908152919050565b81835281816020850137505f828201602090810191909152601f909101601f19169091010190565b604081525f6111e86040830185876111ad565b9050826020830152949350505050565b5f60208284031215611208575f80fd5b5051919050565b838152604060208201525f6112286040830184866111ad565b9594505050505056fea26469706673582212206ce4a16164c119fab37243be728e0d2dec3f6c065817b87d42a646979746f0af64736f6c63430008140033","linkReferences":{}},"methodIdentifiers":{"AAVE_V3()":"32139496","A_USDC()":"c9d05ea1","OPERATOR()":"983d2737","UNISWAP_ROUTER()":"d8264920","USDC()":"89a30271","WETH()":"ad5c4648","forward(address,string,uint256)":"5df6c63e","forwardSwap(address,address,uint24,uint256)":"3f7eca4a","recover(address,address,uint256)":"1ec82cb8","usdcBalance()":"73688e56","userAaveBalance(address)":"6485b555","withdraw(address,string,uint256)":"1f6eafc5"},"id":0}